:020000040000FA
:100000000C94B2000C94DA000C94DA000C94DA0030
:100010000C94DA000C94DA000C94DA000C94DA00F8
:100020000C94DA000C94DA000C94DA000C94DA00E8
:100030000C94DA000C94DA000C94DA000C94DA00D8
:100040000C941A030C94DA000C948A030C94640345
:100050000C94DA000C94DA000C94DA000C94DA00B8
:100060000C94DA000C94DA0000407A10F35A00A0E5
:10007000724E18090010A5D4E80000E87648170071
:1000800000E40B54020000CA9A3B000000E1F505B1
:10009000000080969800000040420F000000A086FB
:1000A00001000000102700000000E803000000002D
:1000B0006400000000000A000000000001000000D1
:1000C00000002C76D888DC674F0823DFC1DFAE59EB
:1000D000E1B1B796E5E3E453C63AE651997696E87E
:1000E000E6C28426EB898C9B62ED407C6FFCEFBC02
:1000F0009C9F40F2BAA56FA5F490055A2AF75C932D
:100100006B6CF9676DC11BFCE0E40D47FEF520E662
:10011000B500D0ED902E0300943577050080841E45
:10012000080000204E0A000000C80C333333330FA0
:10013000986E12831141EF8D2114893BE65516CF3D
:10014000FEE6DB18D1844B381BF77C1D901DA4BB49
:10015000E424203284725E228100C9F124ECA1E5FE
:100160003D27890511241FBECFEFD8E0DEBFCDBFEC
:1001700011E0A0E0B1E0E2EBF9E102C005900D92E0
:10018000A835B107D9F722E0A8E5B1E001C01D927A
:10019000A230B207E1F710E0C2EBD0E004C0219733
:1001A000FE010E94DF0AC13BD107C9F70E94BC03D0
:1001B0000C94D70C0C9400003FB7F89480915D012B
:1001C00090915E01A0915F01B091600126B5A89B5E
:1001D00005C02F3F19F00196A11DB11D3FBFBA2FD9
:1001E000A92F982F8827BC01CD01620F711D811D99
:1001F000911D42E0660F771F881F991F4A95D1F71E
:100200000895AF92BF92CF92DF92EF92FF920F9339
:100210001F93CF93DF936C017B018B01040F151F9C
:10022000EB015E01AE18BF08C017D10759F0699104
:10023000D601ED91FC910190F081E02DC601099568
:10024000892B79F7C501DF91CF911F910F91FF9015
:10025000EF90DF90CF90BF90AF900895FC01538D49
:10026000448D252F30E0842F90E0821B930B541790
:1002700010F0CF96089501970895FC01918D828D1D
:10028000981761F0A28DAE0FBF2FB11D5D968C91B6
:10029000928D9F5F9F73928F90E008958FEF9FEFF5
:1002A0000895FC01918D828D981731F0828DE80FB1
:1002B000F11D858D90E008958FEF9FEF0895FC016B
:1002C000918D228D892F90E0805C9F4F821B910938
:1002D0008F739927089581E691E00E945F0121E0E4
:1002E000892B09F420E0822F089580E090E0892B8B
:1002F00029F00E946B0181110C9400000895FC010B
:10030000A48DA80FB92FB11DA35ABF4F2C91848D76
:1003100090E001968F739927848FA689B7892C93D3
:10032000A089B1898C91837080648C93938D848D26
:10033000981306C00288F389E02D80818F7D808329
:100340000895EF92FF920F931F93CF93DF93EC01E9
:1003500081E0888F9B8D8C8D98131AC0E889F9896C
:10036000808185FF15C09FB7F894EE89FF8960836F
:10037000E889F98980818370806480839FBF81E0F0
:1003800090E0DF91CF911F910F91FF90EF90089532
:10039000F62E0B8D10E00F5F1F4F0F731127E02E0D
:1003A0008C8D8E110CC00FB607FCFACFE889F98945
:1003B000808185FFF5CFCE010E947F01F1CFEB8DCB
:1003C000EC0FFD2FF11DE35AFF4FF0829FB7F89419
:1003D0000B8FEA89FB8980818062CFCFCF93DF9337
:1003E000EC01888D8823B9F0AA89BB89E889F9894D
:1003F0008C9185FD03C0808186FD0DC00FB607FC82
:10040000F7CF8C9185FFF2CF808185FFEDCFCE01B4
:100410000E947F01E9CFDF91CF91089542E050E043
:100420006CE171E081E691E00C9401010F931F9360
:10043000CF93DF93EC0188819981009759F02A814D
:100440003B812617370730F081E0DF91CF911F9174
:100450000F9108958B016F5F7F4F0E940A0C0097E8
:1004600059F0998388831B830A832C813D81232B38
:1004700059F7FC011082E8CF80E0E7CFEF92FF92BE
:100480000F931F93CF93DF936115710541F480E0C3
:10049000DF91CF911F910F91FF90EF90089541153B
:1004A0005105B1F07B01EC010C811D81040F151F7A
:1004B000B8010E941602882351F3288139818C816A
:1004C0009D81B701820F931F0E94D00C1D830C8366
:1004D00081E0DECFFB0144815581608171810C9404
:1004E0003E02CF93DF93EC0188819981009711F050
:1004F0000E94810B198218821D821C821B821A8223
:10050000DF91CF910895CF93DF93EC01FB01019030
:100510000020E9F73197AF01461B570B0E943E02BE
:10052000811103C0CE010E947102CE01DF91CF91F3
:100530000895EF92FF920F931F93CF93DF93EC01F7
:100540007B018A01BA010E94160281110BC0CE0103
:100550000E947102CE01DF91CF911F910F91FF9008
:10056000EF9008951D830C83B701888199810E94C3
:10057000D00CF0CFEF92FF920F931F93CF93DF93A6
:10058000CDB7DEB7A1970FB6F894DEBF0FBECDBFD3
:100590007C01CB01BA01F701118210821382128211
:1005A000158214828E010F5F1F4F26E048E00E94E3
:1005B000B6050097C9F0FC0101900020E9F73197DA
:1005C000AF01481B590BBC01C7010E949902A196BB
:1005D0000FB6F894DEBF0FBECDBFDF91CF911F9154
:1005E0000F91FF90EF900895C7010E947102EFCF25
:1005F000FC0180819181009711F00C94810B08958A
:10060000FB01DC0111961C921E9213961C921E9205
:10061000129715961C921E9214978617970749F009
:10062000608171816115710521F0448155810C94BF
:10063000990208951F920F920FB60F9211242F93D3
:100640003F938F939F93AF93BF9380915901909164
:100650005A01A0915B01B0915C013091580123E0F7
:10066000230F2D3758F50196A11DB11D2093580178
:100670008093590190935A01A0935B01B0935C0160
:1006800080915D0190915E01A0915F01B091600148
:100690000196A11DB11D80935D0190935E01A09311
:1006A0005F01B0936001BF91AF919F918F913F9196
:1006B0002F910F900FBE0F901F90189526E8230FD3
:1006C0000296A11DB11DD2CF1F920F920FB60F92AD
:1006D00011242F933F934F935F936F937F938F9347
:1006E0009F93AF93BF93EF93FF9381E691E00E94B6
:1006F0007F01FF91EF91BF91AF919F918F917F917A
:100700006F915F914F913F912F910F900FBE0F907E
:100710001F9018951F920F920FB60F9211242F93CE
:100720008F939F93EF93FF93E0917101F09172018A
:100730008081E0917701F091780182FD1BC090816A
:1007400080917A018F5F8F7320917B01821741F036
:10075000E0917A01F0E0EF59FE4F958F80937A0196
:10076000FF91EF919F918F912F910F900FBE0F905E
:100770001F9018958081F4CFCF93DF93CDB7DEB76C
:1007800066970FB6F894DEBF0FBECDBF789484B5E0
:10079000826084BD84B5816084BD85B5826085BD7D
:1007A00085B5816085BD80916E00816080936E000B
:1007B00010928100809181008260809381008091FD
:1007C00081008160809381008091800081608093AE
:1007D00080008091B10084608093B1008091B0006E
:1007E00081608093B00080917A00846080937A0069
:1007F00080917A00826080937A0080917A00816093
:1008000080937A0080917A00806880937A001092B9
:10081000C100E0917101F091720182E08083E0916A
:100820006D01F0916E011082E0916F01F091700105
:100830008FEC808310927901E0917501F09176013F
:1008400086E08083E0917301F09174018081806182
:100850008083E0917301F0917401808188608083CE
:10086000E0917301F0917401808180688083E09150
:100870007301F091740180818F7D808380E4809387
:100880007C0080917A00806480937A0080917A0065
:1008900086FDFCCF6091780070917900072E000CE6
:1008A000880B990B611571058105910511F00E9466
:1008B0006F0649E150E06FE171E081E691E00E944E
:1008C00001010E940E0290E4492E92E4592E9FE00D
:1008D000692E712C00E010E00E9420066B017C0163
:1008E0000E9420064B015C01C701B60124EB30E0F9
:1008F00040E050E00E9466096A557109810991093A
:100900000E94B6086B017C01C501B401A3019201EC
:100910000E9466090E94B60820E034E244E759E4E8
:100920000E946D0A9B01AC01C701B6010E94010A39
:100930006B017C010E9420064B015C010E94200695
:100940006B8B7C8B8D8B9E8BC501B40128E631E0CF
:1009500040E050E00E946609645B710981099109D9
:100960000E94B6084B015C016B897C898D899E8948
:10097000A30192010E9466090E94B60820E034E2B9
:1009800044E759E40E946D0A9B01AC01C501B40122
:100990000E94010A4B015C011E861D86188A1F8673
:1009A0001A8A198A4EE050E069E371E0CE010D9693
:1009B0000E94990220E030E0A901C701B6010E941F
:1009C000AF08B701A60187FF88C07058CE0107960F
:1009D0000E94BA02BE01695F7F4FCE0101960E945C
:1009E000000368E471E0CE0101960E948302BC011D
:1009F000CE010D960E946A02CE0101960E94F80275
:100A0000CE0107960E94F80220E030E0A901C5015E
:100A1000B4010E94AF08B501A40187FF6CC07058F3
:100A2000CE0107960E94BA02BE01695F7F4FCE01D8
:100A300001960E94000360E571E0CE0101960E94DC
:100A40008302BC01CE010D960E946A02CE0101967E
:100A50000E94F802CE0107960E94F80249895A893D
:100A60006D857E8581E691E00E9401010E940E0263
:100A70000E94DC006B017C0188EE882E83E0982EBA
:100A8000A12CB12C0E94DC006C197D098E099F09F4
:100A9000683E734081059105A8F321E0821A910810
:100AA000A108B10888EEC80E83E0D81EE11CF11C35
:100AB00081149104A104B10429F7CE010D960E947E
:100AC000F8020115110509F407CF0E946B01882374
:100AD00009F402CF0E940000FFCECE0107960E94CB
:100AE000BA02BE01695F7F4FCE0101960E940003EA
:100AF0006CE471E078CFCE0107960E94BA02BE0185
:100B0000695F7F4FCE0101960E94000364E571E0AA
:100B100094CFE1E6F1E01382128288EE93E0A0E048
:100B2000B0E084839583A683B7838EE091E09183C0
:100B3000808385EC90E09587848784EC90E09787AC
:100B4000868780EC90E0918B808B81EC90E0938B9A
:100B5000828B82EC90E0958B848B86EC90E0978B77
:100B6000868B118E128E138E148E0895EF920F9332
:100B70001F93CF93DF93E80134E047FD34E1042E67
:100B8000000C550B57FF03C0519541955109E32EB9
:100B9000022F242FAE010E947806CE01DF91CF9163
:100BA0001F910F91EF9008958F929F92AF92BF92F5
:100BB000CF92DF92EF92FF92CF93DF93EC016881A7
:100BC00079818A819B81611571058105910521F4E7
:100BD00064E279ED8BE597E02DE133EF41E050E001
:100BE0000E94660949015A019B01AC01A7EAB1E4E0
:100BF0000E9485096B017C01ACEEB4EFA501940164
:100C00000E949309C60ED71EE81EF91EF7FE06C005
:100C100081E0C81AD108E10880E8F80AC882D982C0
:100C2000EA82FB82C701B6019F77DF91CF91FF90E7
:100C3000EF90DF90CF90BF90AF909F908F900895EE
:100C40008F929F92AF92BF92CF92DF92EF92FF92DC
:100C50006091000170910101809102019091030166
:100C6000611571058105910521F464E279ED8BE54B
:100C700097E02DE133EF41E050E00E946609490121
:100C80005A019B01AC01A7EAB1E40E9485096B01FE
:100C90007C01ACEEB4EFA50194010E949309C60E4D
:100CA000D71EE81EF91EF7FE06C081E0C81AD1085B
:100CB000E10880E8F80AC0920001D0920101E092B8
:100CC0000201F0920301C701B6019F77FF90EF90F8
:100CD000DF90CF90BF90AF909F908F9008956093DA
:100CE0000001709301018093020190930301089524
:100CF000A9E0B0E0EEE7F6E00C949E096A01F22E5E
:100D0000B02E102FFBE3AF2EA01608F41BE31F5FDD
:100D1000012F27E0AE014F5F5F4F0E94D707BC0154
:100D20008981982F9970913009F43FC09BE2E1FCD2
:100D300004C09E2D9170E0FC3AC05E2D5071E82FEA
:100D4000E87083FF46C084E0911101C083E0EF2D7D
:100D5000E81B8F1508F0E0E0D6018E2F20E2552326
:100D600051F1992329F0D6019C93C60101966C019B
:100D700096012D5F3F4FE2FE24C08EE4D6018C9396
:100D800091E411969C93119712968C93D9018E2F12
:100D900090E281111BC0E20FF32FF11D10828EEF44
:100DA0009FEF2996ECE00C94BA099DE2C6CF90E241
:100DB000C4CF2D9381508111FCCFCE0ED11CE0E029
:100DC000D0CF8EE6D6018C9391E6DBCF9D938150F8
:100DD000E0CF482F447082FF3DC084E0911101C0F4
:100DE00083E08F1510F4EF2DE81BD6018E2F20E243
:100DF000552309F1992329F0D6019C93C601019648
:100E00006C0196012D5F3F4FE2FE1BC089E4D601C5
:100E10008C938EE411968C93119786E412968C93A2
:100E2000D9018E2F90E2882309F4B5CF9D9381508C
:100E3000FACF2D9381508111FCCFCE0ED11CE0E072
:100E4000D9CF89E6D6018C938EE611968C931197B3
:100E500086E6E4CF9B0177FF02C030E020E0A1E00E
:100E6000B0E0911102C0B0E0A0E0F9013196AE0F00
:100E7000BF1F8B2C912CBB2009F461C05401EFEFF4
:100E8000AE1ABE0AAA0DBB1DFA161B0619F014F005
:100E90004F2D4A1B511188C0E3FC59C07601A42F85
:100EA000B0E2A1114FC0C40ED11C992309F45BC05C
:100EB00040E0D6011196F60190836D01552309F4A7
:100EC00048C0012F060F9A81582F507184FF03C02C
:100ED000913309F4015010160CF047C0093008F0A6
:100EE00008E0EEE2FE2E5B01A01AB10885019194A4
:100EF000819491082F3F320729F4D601FC92F60124
:100F000031966F016217730794F1021713077CF58E
:100F1000DB01A21BB30BAA24A394B12CAC0EBD1E03
:100F2000AA0DBB1D11968C9121503109D601119645
:100F300028153905F4F0F60180836D01DBCFB12C63
:100F4000A12CA0CFF701B1937F01A150AACF91119D
:100F5000B0CFD601942F50E302C05D939150911110
:100F6000FCCFC40ED11C40E0ACCF01E0BACF80E38F
:100F7000DBCF6217730731F4963388F4953311F49D
:100F8000552369F0F6018083FD01842F90E28111E1
:100F900008C0A40FB11D1C9290E080E002CF81E355
:100FA000F1CF91938150F3CF911183CF8ACF283025
:100FB00008F027E03327DA01990F311D87FD916092
:100FC00000966105710539F432602E5F3D9330E380
:100FD0002A95E1F708959F3F30F08038710561054B
:100FE00009F03C5F3C5F3D93913008F08068911DB3
:100FF000DF93CF931F930F93FF92EF92192F987F58
:101000009695E92F96959695E90FFF27EE53FF4F9A
:1010100099273327EE24FF24A701E70105900894C0
:10102000079428F4360FE71EF81E491F511D660F5E
:10103000771F881F991F0694A1F70590079428F43D
:10104000E70EF81E491F561FC11D770F881F991FF5
:10105000661F0694A1F70590079428F4F80E491F1F
:10106000561FC71FD11D880F991F661F771F069433
:10107000A1F70590079420F4490F561FC71FD81FEA
:10108000990F661F771F881F0694A9F78491109502
:10109000177041F0D695C79557954795F794E79403
:1010A0001A95C1F7E8E6F0E068941590159135912E
:1010B0006591959105907FE27395E118F10A430BD4
:1010C000560BC90BD009C0F7E10CF11E431F561F88
:1010D000C91FD01D7EF4703311F48A95E6CFE894D1
:1010E000015030F0080F0AF40027021708F4202FEF
:1010F0002395022F7A3328F079E37D932A95E9F737
:1011000010C07D932A9589F6069497956795379533
:1011100017951794E118F10A430B560BC90BD00928
:1011200098F023957E9173957A3308F070E37C9361
:101130002013B8F77E9170617D9330F0839571E351
:101140007D9370E32A95E1F71124EF90FF900F91C2
:101150001F91CF91DF91992787FD909508950E9467
:10116000F10808F481E00895E89409C097FB3EF483
:1011700090958095709561957F4F8F4F9F4F9923E4
:10118000A9F0F92F96E9BB279395F6958795779562
:101190006795B795F111F8CFFAF4BB0F11F460FF22
:1011A0001BC06F5F7F4F8F4F9F4F16C0882311F07A
:1011B00096E911C0772321F09EE8872F762F05C08E
:1011C000662371F096E8862F70E060E02AF09A9529
:1011D000660F771F881FDAF7880F9695879597F91E
:1011E0000895990F0008550FAA0BE0E8FEEF1616B8
:1011F0001706E807F907C0F012161306E407F5070B
:1012000098F0621B730B840B950B39F40A2661F07E
:10121000232B242B252B21F408950A2609F4A14021
:10122000A6958FEF811D811D089597F99F6780E82E
:1012300070E060E008959FEF80EC089500240A9428
:101240001616170618060906089500240A941216A1
:101250001306140605060895092E0394000C11F4D4
:10126000882352F0BB0F40F4BF2B11F460FF04C081
:101270006F5F7F4F8F4F9F4F089557FD9058440FDA
:10128000551F59F05F3F71F04795880F97FB991FE5
:1012900061F09F3F79F087950895121613061406A2
:1012A000551FF2CF4695F1DF08C01616170618062F
:1012B000991FF1CF86957105610508940895E8940A
:1012C000BB2766277727CB0197F90895052E97FB53
:1012D0001EF400940E947D0957FD07D00E94CF099B
:1012E00007FC03D04EF40C947D0950954095309541
:1012F00021953F4F4F4F5F4F089590958095709582
:1013000061957F4F8F4F9F4F08950E94F109A59FD0
:10131000900DB49F900DA49F800D911D11240895F0
:10132000B7FF0C9485090E948509821B930B0895D1
:101330002F923F924F925F926F927F928F929F92E5
:10134000AF92BF92CF92DF92EF92FF920F931F93D3
:10135000CF93DF93CDB7DEB7CA1BDB0B0FB6F89484
:10136000DEBF0FBECDBF09942A88398848885F84C4
:101370006E847D848C849B84AA84B984C884DF8035
:10138000EE80FD800C811B81AA81B981CE0FD11D19
:101390000FB6F894DEBF0FBECDBFED010895A1E2F8
:1013A0001A2EAA1BBB1BFD010DC0AA1FBB1FEE1FDF
:1013B000FF1FA217B307E407F50720F0A21BB30B2A
:1013C000E40BF50B661F771F881F991F1A9469F7A6
:1013D00060957095809590959B01AC01BD01CF0102
:1013E0000895A29FB001B39FC001A39F700D811DFE
:1013F0001124911DB29F700D811D1124911D08951E
:101400005058BB27AA270E94180A0C942C090E9446
:101410001E0938F00E94250920F039F49F3F19F485
:1014200026F40C941B090EF4E095E7FB0C941509C7
:10143000E92F0E943D0958F3BA1762077307840722
:10144000950720F079F4A6F50C945F090EF4E09569
:101450000B2EBA2FA02D0B01B90190010C01CA016E
:10146000A0011124FF27591B99F0593F50F4503E19
:1014700068F11A16F040A22F232F342F4427585F0B
:10148000F3CF469537952795A795F0405395C9F723
:101490007EF41F16BA0B620B730B840BBAF09150DB
:1014A000A1F0FF0FBB1F661F771F881FC2F70EC07A
:1014B000BA0F621F731F841F48F48795779567954D
:1014C000B795F7959E3F08F0B0CF9395880F08F039
:1014D0009927EE0F9795879508950E94810A0C949D
:1014E0002C090E94250958F00E941E0940F029F499
:1014F0005F3F29F00C94150951110C9460090C946C
:101500001B090E943D0968F39923B1F3552391F318
:10151000951B550BBB27AA2762177307840738F062
:101520009F5F5F4F220F331F441FAA1FA9F335D0BF
:101530000E2E3AF0E0E832D091505040E695001C73
:10154000CAF72BD0FE2F29D0660F771F881FBB1F2D
:10155000261737074807AB07B0E809F0BB0B802D0B
:10156000BF01FF2793585F4F3AF09E3F510578F037
:101570000C9415090C9460095F3FE4F3983ED4F392
:10158000869577956795B795F7959F5FC9F7880F0B
:10159000911D9695879597F90895E1E0660F771F5D
:1015A000881FBB1F621773078407BA0720F0621BEE
:1015B000730B840BBA0BEE1F88F7E0950895EE0FBE
:1015C000FF1F0590F491E02D09940F931F93CF9383
:1015D000DF938230910510F482E090E0E091000208
:1015E000F091010230E020E0B0E0A0E0309799F403
:1015F0002115310509F44AC0281B390B2430310567
:10160000D8F58A819B816115710589F1FB0193836E
:101610008283FE0111C040815181028113814817EC
:101620005907E0F04817590799F4109761F012969E
:101630000C93129713961C933296CF01DF91CF91A2
:101640001F910F9108950093000210930102F4CFAF
:101650002115310551F04217530738F0A901DB017C
:101660009A01BD01DF01F801C1CFEF01F9CF9093DD
:10167000010280930002CDCFFE01E20FF31F8193A0
:1016800091932250310939832883D7CF2091FE01CD
:101690003091FF01232B41F4209106013091070185
:1016A0003093FF012093FE01209104013091050148
:1016B0002115310541F42DB73EB7409108015091F5
:1016C0000901241B350BE091FE01F091FF01E217A7
:1016D000F307A0F42E1B3F0B2817390778F0AC0155
:1016E0004E5F5F4F2417350748F04E0F5F1F509332
:1016F000FF014093FE01819391939FCFF0E0E0E0E2
:101700009CCFCF93DF930097E9F0FC0132971382CF
:101710001282A0910002B0910102ED0130E020E0C0
:101720001097A1F420813181820F931F2091FE0137
:101730003091FF012817390709F061C0F093FF01CC
:10174000E093FE01DF91CF910895EA01CE17DF0704
:10175000E8F54A815B819E0141155105B1F7E90128
:10176000FB83EA8349915991C40FD51FEC17FD07FC
:1017700061F4808191810296840F951FE90199831C
:101780008883828193819B838A83F0E0E0E01296D4
:101790008D919C9113970097B9F52D913C911197DC
:1017A000CD010296820F931F2091FE013091FF011F
:1017B0002817390739F6309751F510920102109227
:1017C0000002B093FF01A093FE01BCCFD383C2837C
:1017D00040815181840F951FC817D90761F44E5F6E
:1017E0005F4F88819981480F591F518340838A81B7
:1017F0009B81938382832115310509F0B0CFF0934B
:101800000102E09300029ECFFD01DC01C0CF1382F4
:101810001282D7CFB0E0A0E0E0E1FCE00C949A099E
:101820008C01009751F4CB010E94E50A8C01C8019C
:10183000CDB7DEB7E0E10C94B609FC01E60FF71F67
:101840009C0122503109E217F30708F49DC0D90129
:10185000CD91DC911197C617D70798F0C530D10507
:1018600030F3CE0104978617970708F3C61BD70BF2
:101870002297C193D1936D937C93CF010E94810BEA
:10188000D6CF5B01AC1ABD0A4C018C0E9D1EA091F7
:101890000002B0910102512C412CF12CE12C109747
:1018A00031F58091FE019091FF018815990509F0AD
:1018B0005CC04616570608F058C08091040190910C
:1018C0000501009741F48DB79EB7409108015091F2
:1018D0000901841B950BE817F90708F055C0F09330
:1018E000FF01E093FE01F90171836083A0CF8D9128
:1018F0009C91119712966C90129713967C90139767
:10190000A815B90559F56C0142E0C40ED11CCA14E2
:10191000DB0420F1AC014A195B09DA011296159734
:1019200080F06282738251834083D9016D937C93EE
:10193000E114F10471F0D7011396FC93EE93129722
:1019400076CF22968C0F9D1FF90191838083F3013E
:10195000EFCFF0930102E093000269CF48165906D9
:1019600008F42C017D01D3019ACFCB010E94E50A36
:101970007C01009749F0AE01B8010E94C70CC80174
:101980000E94810B870153CF10E000E050CFFB0194
:10199000DC0102C001900D9241505040D8F70895EB
:1019A000FB01DC0101900D920020E1F70895F8940D
:1019B000FFCF0100000000000202800000000000D4
:1019C000A10101012E01EE015F013D0151010D0A4E
:1019D000004750532053696D756C61746F722049D4
:1019E0006E697469616C697A656400244750474781
:1019F000412C3132333531392C002C532C002C4EF4
:0A1A00002C002C572C002C452C0064
:107E0000112484B714BE81FFF0D085E080938100F7
:107E100082E08093C00088E18093C10086E0809377
:107E2000C20080E18093C4008EE0C9D0259A86E02C
:107E300020E33CEF91E0309385002093840096BBD3
:107E4000B09BFECF1D9AA8958150A9F7CC24DD24C4
:107E500088248394B5E0AB2EA1E19A2EF3E0BF2EE7
:107E6000A2D0813461F49FD0082FAFD0023811F036
:107E7000013811F484E001C083E08DD089C08234E0
:107E800011F484E103C0853419F485E0A6D080C0E4
:107E9000853579F488D0E82EFF2485D0082F10E0AE
:107EA000102F00270E291F29000F111F8ED06801E7
:107EB0006FC0863521F484E090D080E0DECF843638
:107EC00009F040C070D06FD0082F6DD080E0C81688
:107ED00080E7D80618F4F601B7BEE895C0E0D1E017
:107EE00062D089930C17E1F7F0E0CF16F0E7DF06D8
:107EF00018F0F601B7BEE89568D007B600FCFDCFD4
:107F0000A601A0E0B1E02C9130E011968C91119780
:107F100090E0982F8827822B932B1296FA010C0160
:107F200087BEE89511244E5F5F4FF1E0A038BF0790
:107F300051F7F601A7BEE89507B600FCFDCF97BE46
:107F4000E89526C08437B1F42ED02DD0F82E2BD052
:107F50003CD0F601EF2C8F010F5F1F4F84911BD097
:107F6000EA94F801C1F70894C11CD11CFA94CF0C13
:107F7000D11C0EC0853739F428D08EE10CD085E9AC
:107F80000AD08FE07ACF813511F488E018D01DD067
:107F900080E101D065CF982F8091C00085FFFCCF94
:107FA0009093C60008958091C00087FFFCCF809118
:107FB000C00084FD01C0A8958091C6000895E0E648
:107FC000F0E098E1908380830895EDDF803219F02E
:107FD00088E0F5DFFFCF84E1DECF1F93182FE3DFCA
:107FE0001150E9F7F2DF1F91089580E0E8DFEE27F6
:047FF000FF270994CA
:027FFE00040479
:00000001FF
