:020000040000FA
:100000000C945B050C9483050C9483050C94830578
:100010000C9483050C9483050C9483050C94830540
:100020000C9483050C9483050C9483050C94830530
:100030000C9483050C9483050C9483050C94830520
:100040000C94EE150C9483050C945E160C943816E3
:100050000C9483050C9483050C9483050C94830500
:100060000C9490160C94830500000000003E5B4F3A
:100070005B3E3E6B4F6B3E1C3E7C3E1C183C7E3C08
:10008000181C577D571C1C5E7F5E1C00183C180016
:10009000FFE7C3E7FF0018241800FFE7DBE7FF30A6
:1000A000483A060E2629792926407F050507407F14
:1000B00005253F5A3CE73C5A7F3E1C1C08081C1C87
:1000C0003E7F14227F22145F5F005F5F06097F017D
:1000D0007F006689956A606060606094A2FFA29468
:1000E00008047E040810207E201008082A1C080836
:1000F0001C2A08081E101010100C1E0C1E0C303884
:100100003E3830060E3E0E06000000000000005F84
:1001100000000007000700147F147F14242A7F2AA0
:100120001223130864623649562050000807030062
:10013000001C2241000041221C002A1C7F1C2A08AE
:10014000083E080800807030000808080808000011
:1001500060600020100804023E5149453E00427F85
:10016000400072494949462141494D331814127FD4
:100170001027454545393C4A494931412111090774
:100180003649494936464949291E000014000000F5
:1001900040340000000814224114141414140041C7
:1001A00022140802015909063E415D594E7C121184
:1001B000127C7F494949363E414141227F414141BC
:1001C0003E7F494949417F090909013E4141517337
:1001D0007F0808087F00417F41002040413F017FA8
:1001E000081422417F404040407F021C027F7F0470
:1001F00008107F3E4141413E7F090909063E4151B9
:10020000215E7F09192946264949493203017F01A8
:10021000033F4040403F1F2040201F3F4038403FA9
:10022000631408146303047804036159494D4300BF
:100230007F4141410204081020004141417F0402F6
:10024000010204404040404000030708002054548D
:1002500078407F284444383844444428384444286B
:100260007F385454541800087E090218A4A49C78BE
:100270007F0804047800447D40002040403D007F1A
:100280001028440000417F40007C047804787C08FA
:100290000404783844444438FC18242418182424CE
:1002A00018FC7C08040408485454542404043F44B3
:1002B000243C4040207C1C2040201C3C4030403CE2
:1002C00044281028444C9090907C4464544C440042
:1002D00008364100000077000000413608000201A6
:1002E0000204023C2623263C1EA1A161123A404092
:1002F000207A38545455592155557941225454780F
:1003000042215554784020545579400C1E527212A7
:100310003955555559395454545939555454580030
:1003200000457C410002457D420001457C407D1234
:1003300011127DF0282528F07C5455450020545496
:100340007C547C0A097F4932494949323A44444441
:100350003A324A4848303A4141217A3A424020787C
:10036000009DA0A07D3D4242423D3D4040403D3C7D
:1003700024FF2424487E4943662B2FFC2F2BFF09A2
:1003800029F620C0887E0903205454794100004496
:100390007D413048484A32384040227A007A0A0A81
:1003A000727D0D19317D2629292F282629292926F4
:1003B00030484D4020380808080808080808382F39
:1003C00010C8ACBA2F102834FA00007B00000814C3
:1003D0002A142222142A14085500550055AA55AA99
:1003E00055AAFF55FF55FF000000FF00101010FF39
:1003F00000141414FF001010FF00FF1010F010F094
:10040000141414FC001414F700FF0000FF00FF1484
:1004100014F404FC141417101F10101F101F1414D0
:10042000141F00101010F0000000001F101010101A
:100430001F10101010F010000000FF10101010100E
:1004400010101010FF10000000FF140000FF00FF4C
:1004500000001F10170000FC04F4141417101714E8
:1004600014F404F40000FF00F7141414141414140A
:10047000F700F7141414171410101F101F1414147D
:10048000F4141010F010F000001F101F0000001FE7
:1004900014000000FC140000F010F01010FF10FF1A
:1004A000141414FF141010101F00000000F010FFAF
:1004B000FFFFFFFFF0F0F0F0F0FFFFFF0000000093
:1004C00000FFFF0F0F0F0F0F3844443844FC4A4A17
:1004D0004A347E02020606027E027E0263554941CC
:1004E000633844443C04407E201E2006027E020203
:1004F00099A5E7A5991C2A492A1C4C7201724C3017
:100500004A4D4D303048784830BC625A463D3E49ED
:100510004949007E0101017E2A2A2A2A2A44445F91
:10052000444440514A444040444A51400000FF0185
:1005300003E080FF000008086B6B08361236243693
:10054000060F090F060000181800000010100030F8
:1005500040FF0101001F01011E00191D1712003C80
:100560003C3C3C0000000000000103070F1F3F7FE0
:100570000080C0E0F0F8FCFEDB40A4A62EAF200017
:10058000A1C8D300408DAED580A800006000000057
:100590000000000000000000000000E0000000007B
:1005A00000000000000000000001E000000000006A
:1005B000000000000000000001F00000000000004A
:1005C0000000000000000003F00000000000000038
:1005D00000000000000007F0000000000000000024
:1005E000000000000007F80000000000000000000C
:1005F000000000000FF800000003C0007E000001B2
:10060000E0007F0FF800000003C000FE000001E0E2
:1006100000FFEFF800000003C000FE000001E00052
:10062000FFFFF800000003C000F00000000F007F93
:10063000FE7FC0000003C000F00000000F003FFE7E
:100640007FF83FF1FBCFFCFEF3BC3DEFE01FFE7FE8
:10065000FF7FFBFFDFFEFEFFBC3DEFE01FC6FFFF9D
:100660007FFBFFDFFEFEFFBC3DEFE00FE3C7FE7840
:100670007BC3DE1EF0FFBC3DEF0007FF87FC787BED
:10068000C3DE1EF0F83C3DEF0001FFFFF0007BC32E
:10069000C01EF0F03C3DEF0001F37FE03FFBC3CF15
:1006A000FEF0F03C3DEF0003E33F807FFBC3DFFE45
:1006B000F0F03C3DEF0007E73C00787BC3DE1EF026
:1006C000F03C3DEF0007FFBE00787BC3DE1EF0F07C
:1006D0003C3DEF0007FFFE00787BC3DE1EF0F03CE0
:1006E0003DEF000FFFFE007FFBFFDFFEF0F03FFD60
:1006F000EFE00FFFFF007FFBFFDFFEF0F03FFDEFBD
:10070000E00FF9FF003E79F9CF9EF0F01F3DE7E0E2
:100710001FF1FF0000000000000000000000001FAB
:1007200080FF007FFFFFFFFFFFFFFFFFFFE01C00D8
:100730007F007FFFFFFFFEB46D888D18E000001F73
:10074000007FFFFFFFFE95AD7DB577E000000F0055
:100750007FFFFFFFFEA5AD9D8D19E0000006007F25
:10076000FFFFFFFEB5ADEDB57EE00000000000012B
:100770008000000000000000000003800000000076
:10078000000000000007C0000000000000000000A2
:1007900007C00000000000000000000FC0000000C3
:1007A0000000000000001FE000000000000000004A
:1007B000001FE00000000000000000003FE000001B
:1007C000000000000000003FF000000000000000FA
:1007D00000007FF0000000000000001FF87FF00024
:1007E0000000000000003FFE7FF00000000000005D
:1007F000003FFF7FF0000000000000001FFFFBE053
:10080000000000000000000FFFF9FFC00000000022
:1008100000000FFFF9FFF800000000000007FFF1E3
:10082000FFFF00000000000003FC73FFFF800000DA
:1008300000000001FE3FFFFF80000000000000FFFD
:100840001E0FFF000000000000007FFE1FFC0000E4
:1008500000000000003FFFFFF80000000000000063
:100860000FDFFFE0000000000000001F19FFC000C4
:100870000000000000003F3CFF00000000000000FE
:10088000007E7CF800000000000000007FFE7C007D
:1008900000000000000000FFFFFC0000000000005E
:1008A0000000FFFFFE0000000000000000FFFFFE50
:1008B0000000000000000001FFEFFE00000000004B
:1008C000000001FFCFFE0000000000000003FF0752
:1008D000FE0000000000000003FC07FE0000000016
:1008E00000000003F003FE00000000000000018093
:1008F00000FE000000000000000000007E0000007C
:10090000000000000000003E0000000000000000A9
:1009100000000C000000000000078000FC00000345
:10092000C0000000078001FC000003C000000007B9
:100930008001FC000003C0000000078001E000000F
:10094000001E000000078001E00000001E007FE3A1
:10095000F79FF9FDE7787BDFC0FFF7FFBFFDFDFFE5
:10096000787BDFC0FFF7FFBFFDFDFF787BDFC0F0C6
:10097000F787BC3DE1FF787BDE00F0F787BC3DE107
:10098000F0787BDE0000F787803DE1E0787BDE00D9
:100990007FF7879FFDE1E0787BDE00FFF787BFFDF3
:1009A000E1E0787BDE00F0F787BC3DE1E0787BDEBC
:1009B00000F0F787BC3DE1E0787BDE00F0F787BC14
:1009C0003DE1E0787BDE00FFF7FFBFFDE1E07FFB6C
:1009D000DFC0FFF7FFBFFDE1E07FFBDFC07CF3F38B
:1009E0009F3DE1E03E7BCFC0000000000000000022
:1009F000000000FFFFFFFFFFFFFFFFFFFFC0FFFF43
:100A0000FFFFFD68DB111A31C0FFFFFFFFFD2B5A0E
:100A1000FB6AEFC0FFFFFFFFFD4B5B3B1A33C0FFDC
:100A2000FFFFFFFD6B5BDB6AFDC047505320526543
:100A300063656976657220496E697469616C697A6B
:100A40006564005353443133303620616C6C6F63FE
:100A50006174696F6E206661696C656400000000F6
:100A6000080002010000030407000000000000006D
:100A70000000000000250028002B000000000024DA
:100A80000027002A000404040404040404020202EF
:100A900002020203030303030301020408102040BF
:100AA000800102040810200102040810202200FF27
:100AB0002100AF178B1C11241FBECFEFD8E0DEBF83
:100AC000CDBF23E0AEE8B1E001C01D92AF33B20765
:100AD000E1F711E0A0E0B1E0EAE3FEE302C0059037
:100AE0000D92AE38B107D9F715E0CAE5D5E004C0DC
:100AF0002197FE010E94F31CC935D107C9F70E9456
:100B000032180C94101F0C94000090E0FC01E75682
:100B1000F54F24918B57954FFC018491882399F0D0
:100B200090E0880F991FFC01E558F54FA591B4910D
:100B3000FC01EF58F54F859194918FB7F894EC91A3
:100B4000E22BEC938FBF0895089590E0FC01E35AE7
:100B5000F54F2491FC01E756F54F3491FC01EB571A
:100B6000F54FE491EE23C9F0222339F0233001F14F
:100B7000A8F4213019F1223029F1F0E0EE0FFF1F27
:100B8000EF58F54FA591B4918FB7F894EC9161119E
:100B900026C030953E233C938FBF08952730A9F09F
:100BA0002830C9F0243049F7809180008F7D03C040
:100BB000809180008F7780938000DFCF84B58F771E
:100BC00084BDDBCF84B58F7DFBCF8091B0008F7764
:100BD0008093B000D2CF8091B0008F7DF9CF3E2BB3
:100BE000DACF3FB7F8948091460290914702A091E6
:100BF0004802B091490226B5A89B05C02F3F19F0C5
:100C00000196A11DB11D3FBFBA2FA92F982F88278C
:100C1000BC01CD01620F711D811D911D42E0660F67
:100C2000771F881F991F4A95D1F708958F929F9239
:100C3000AF92BF92CF92DF92EF92FF924B015C0195
:100C40000E94F1056B017C010E94F1056C197D0980
:100C50008E099F09683E734081059105A8F321E044
:100C6000821A9108A108B10888EEC80E83E0D81E48
:100C7000E11CF11C81149104A104B10429F7FF9037
:100C8000EF90DF90CF90BF90AF909F908F9008959E
:100C900008950895DB0114964D915C9115976D911F
:100CA0007C91DC01ED91FC910280F381E02D0994AF
:100CB000EF92FF920F931F93CF93DF938C017B01F1
:100CC000D0E0C0E0F701EC0FFD1F6491662361F0F6
:100CD000D801ED91FC910190F081E02DC8010995BA
:100CE000892B11F02196EECFCE01DF91CF911F918C
:100CF0000F91FF90EF900895AF92BF92CF92DF9245
:100D0000EF92FF920F931F93CF93DF936C017B01C0
:100D10008B01040F151FEB015E01AE18BF08C01751
:100D2000D10759F06991D601ED91FC910190F081C4
:100D3000E02DC6010995892B79F7C501DF91CF9187
:100D40001F910F91FF90EF90DF90CF90BF90AF90E9
:100D50000895FC01538D448D252F30E0842F90E0C1
:100D6000821B930B541710F0CF96089501970895A6
:100D7000FC01918D828D981761F0A28DAE0FBF2F6F
:100D8000B11D5D968C91928D9F5F9F73928F90E0C5
:100D900008958FEF9FEF08952FB7F89480914A023E
:100DA00090914B02A0914C02B0914D022FBF8093C5
:100DB0005A0290935B02A0935C02B0935D0282E5BD
:100DC00092E00E94B80697FF26C02FB7F894809152
:100DD0004A0290914B02A0914C02B0914D022FBF5C
:100DE00040915A0250915B0260915C0270915D02E9
:100DF000841B950BA60BB70B4091560250915702DE
:100E0000609158027091590284179507A607B70799
:100E1000B0F28FEF9FEF0895FC01918D828D9817AE
:100E200031F0828DE80FF11D858D90E008958FEFF0
:100E30009FEF0895FC01918D228D892F90E0805CB9
:100E40009F4F821B91098F739927089582E592E045
:100E50000E941A0721E0892B09F420E0822F0895CF
:100E600080E090E0892B29F00E94260781110C94E4
:100E700000000895FC01A48DA80FB92FB11DA35A3D
:100E8000BF4F2C91848D90E001968F739927848FAA
:100E9000A689B7892C93A089B1898C9183708064CD
:100EA0008C93938D848D981306C00288F389E02D6E
:100EB00080818F7D80830895EF92FF920F931F931F
:100EC000CF93DF93EC0181E0888F9B8D8C8D9813FD
:100ED0001AC0E889F989808185FF15C09FB7F89409
:100EE000EE89FF896083E889F98980818370806455
:100EF00080839FBF81E090E0DF91CF911F910F91A0
:100F0000FF90EF900895F62E0B8D10E00F5F1F4FAE
:100F10000F731127E02E8C8D8E110CC00FB607FCBD
:100F2000FACFE889F989808185FFF5CFCE010E944B
:100F30003A07F1CFEB8DEC0FFD2FF11DE35AFF4F78
:100F4000F0829FB7F8940B8FEA89FB8980818062D9
:100F5000CFCFCF93DF93EC01888D8823B9F0AA8996
:100F6000BB89E889F9898C9185FD03C0808186FD64
:100F70000DC00FB607FCF7CF8C9185FFF2CF8081B3
:100F800085FFEDCFCE010E943A07E9CFDF91CF91E7
:100F90000895EF92FF920F931F93CF93DF93EC018D
:100FA000EC80FD806E157F050CF070C057FF04C00B
:100FB000240F351F50E040E08E819F81FA01E20F3F
:100FC000F31F8E179F071CF49C01241B350B121670
:100FD00013060CF05BC0922F842F8695869586951C
:100FE0008E9DD0018F9DB00D11246A0F7B1FAF8D98
:100FF000B8A1A60FB71F477049F188E0841B482F9E
:10100000682F70E0FB01E059FA4FE491281708F0CF
:1010100063C0621B71092FEF30E002C03595279540
:101020006A95E2F7E2230130110539F0B0F10230A0
:10103000110561F58C91E82702C08C91E82BEC93A7
:10104000941720F12C813D81A20FB31FE92FE41BDF
:10105000E83078F00230110521F58E2F9C919095A3
:101060009C932C813D81A20FB31F88508830B0F72C
:10107000E770EE2359F0F0E0E859FA4FE4910130BF
:101080001105F9F010F10230110519F1DF91CF913E
:101090001F910F91FF90EF900895E0958C91E823B8
:1010A000CECF81E00115110509F480E081959E2FD6
:1010B0008C932C813D81A20FB31F98509830C0F7BC
:1010C000D7CF8C91E82BEC93E1CFE0958C91E8237E
:1010D000FACF8C91E827F7CF0130110509F4ADCF95
:1010E000E0F20230110509F4A5CFAE0DBF1DAECF61
:1010F0000F931F93CF93DF9377FF04C0260F371F03
:1011000070E060E0DC011496CD91DC91FB01E20F10
:10111000F31FCE17DF071CF49E01261B370B121698
:1011200013064CF5FA0157FD3796A3E0F595E795C0
:10113000AA95E1F7EC9FD001ED9FB00DFC9FB00D9B
:1011400011246A0F7B1FDC015F96ED91FC91E60F85
:10115000F71F4770552781E090E001C0880F4A953E
:10116000EAF7482F0130110559F0A8F02E0F3F1F64
:1011700002301105E1F0DF91CF911F910F91089599
:101180002E0F3F1FE217F307B1F38191DF01119793
:10119000842B8C93F7CF80952E0F3F1FE217F30718
:1011A00051F39191DF01119798239C93F7CFE217A8
:1011B000F30709F38191DF01119784278C93F7CF0F
:1011C0000F931F93FA01DC0156964C9156974230CB
:1011D000E9F04330A1F1413061F514964D915C91F5
:1011E000DA01AE1BBF0BFD01E21BF30B77FD0BC059
:1011F000DC0116964D915C916417750724F4AB01E0
:10120000BF010E9478081F910F91089514964D9187
:101210005C91DA01A61BB70BBD0161507109DC01BD
:1012200016964D915C91DA01AE1BBF0BFD01E21BDE
:10123000F30B77FDE8CFAF010E94C907E4CF169604
:101240004D915C91DA01A61BB70BBD01615071098C
:10125000CDCF0F931F93FA01DC0156964C91569710
:101260004230A9F0433091F1413019F514964D9177
:101270005C91DA01AE1BBF0BFD013197F7FD04C095
:10128000AB01BF010E94C9071F910F9108951496E9
:101290004D915C91DA01A61BB70BBD01DC011696DE
:1012A0004D915C91DA01AE1BBF0BFD013197621BC2
:1012B000730BF7FDE9CFDC0116964D915C91E417B5
:1012C000F50714F7AF010E947808DECF16964D910E
:1012D0005C91DA01A61BB70BBD01621B730BCECF6D
:1012E000FC0177FD64C080859185681779070CF053
:1012F0005EC057FD5CC082859385481759070CF086
:1013000056C086898230B1F0833029F1813041F4B2
:1013100084819581841B950BAB01BC0161507109DF
:101320002130310509F108F443C02230310509F4B8
:1013300063C0089584819581DC01A61BB70BBD01B4
:101340006150710986819781DC01A41BB50BAD0149
:1013500041505109E5CF86819781861B970BBA01D1
:10136000AC0141505109DCCFCA0157FD0796A3E0FB
:1013700095958795AA95E1F7A481B5818A9F9001FB
:101380008B9F300D9A9F300D1124620F731F078CB5
:10139000F0A1E02DE60FF71F4770552721E030E060
:1013A00001C0220F4A95EAF78081822B808308953D
:1013B000CA0157FD079633E0959587953A95E1F771
:1013C000A481B5818A9F90018B9F300D9A9F300D2B
:1013D0001124620F731F078CF0A1E02DE60FF71F99
:1013E0004770552781E090E001C0880F4A95EAF7E1
:1013F000809590818923DACFCA0157FD079623E0B3
:10140000959587952A95E1F7A481B5818A9F9001EA
:101410008B9F300D9A9F300D1124620F731F078C24
:10142000F0A1E02DE60FF71F4770552721E030E0CF
:1014300001C0220F4A95EAF780818227B7CF08952D
:101440008EBD00000DB407FEFDCF8EB508958CBD96
:101450009DBD08950895FC016370668B848195811C
:1014600026813781613039F0633029F09187808798
:10147000338722870895318720879387828708954D
:101480002F923F924F925F926F927F928F929F9294
:10149000AF92BF92CF92DF92EF92FF920F931F9382
:1014A000CF93DF93CDB7DEB76A970FB6F894DEBF60
:1014B0000FBECDBF9A8F898F7A8369834A01D22E5E
:1014C00018870F833701BC2CDC0159962D913C9174
:1014D0005A972115310509F015C118968D919C91E7
:1014E0001997681779070CF0D7C11A968D919C91BE
:1014F000481759070CF0D0C14C2C512CB6E0CB9EAC
:10150000600D711D11247C876B87161617060CF071
:10151000C3C1EA2DF0E0FA87E98793E0EE0FFF1FE1
:101520009A95E1F7F88BEF87CF01840F951F181676
:1015300019060CF0B1C1A98DBA8D58968C91811104
:1015400004C0BFEABD1508F4D394A98DBA8DED91FE
:10155000FC9111970284F385E02DCD010995B5E04A
:10156000DB9EC0011124E981FA81FC83EB83312CDD
:10157000212C9C0128593F4F388F2F8B4A2D50E04A
:101580005E8B4D8BEF89F88DE20DF31D44919E82A9
:101590008D82D12CC12C69817A81620D731D7A8B69
:1015A000698B842F90E09C8B8B8BE98DFA8DA081C9
:1015B000B18140FF82C0F1E0BF126FC0AF126DC0B9
:1015C0001C96ED91FC912F813885A4014C0D5D1D79
:1015D00069897A89898D9A8D0995EB89FC89F595B8
:1015E000E7954E2F5FEFC51AD50A6D817E818D89F3
:1015F0009E89680F791F7E836D8398E0C916D10498
:1016000081F6AFEF2A1A3A0AEB81FC81E40DF51D51
:10161000FC83EB83F5E02F16310409F0B3CF2F8163
:10162000388526153705B9F0A98DBA8DED91FC9155
:10163000B1E0BB1257C0AB1255C069817A816B5FB4
:101640007F4F0088F189E02D830128E030E0A4017C
:10165000898D9A8D0995A98DBA8DED91FC9111977F
:101660000688F789E02DCD016A960FB6F894DEBFA3
:101670000FBECDBFDF91CF911F910F91FF90EF90E3
:10168000DF90CF90BF90AF909F908F907F906F90A2
:101690005F904F903F902F9009941E96ED91FC9192
:1016A000EF80F88409851A8592014D815E816B81F6
:1016B0007C81898D9A8D099590CF2F81388526154B
:1016C000370509F48ACF31E0B31207C0A31205C071
:1016D0001C96ED91FC91930178CF1E96ED91FC91B3
:1016E0007301E0CF6B857C85641975090684F785E5
:1016F000E02D73010F8518899201A401898D9A8DBF
:101700000995A9CFF9013496949132974591549156
:10171000D91AB7E0DB9E400D511D1124F901259126
:1017200034913C8B2B8BFA0125903490FA01329640
:10173000749031963491398B3296649031964490FE
:1017400041E04C1518F04A1508F07FC0662D062CB4
:10175000000C770B7C836B83842D042C000C990B7D
:101760009E838D83A98DBA8DED91FC911197028492
:10177000F385E02DCD010995512CD12CC12CEA2DFA
:10178000F0E0FA87E9872B2D30E03C872B87A40116
:10179000440D511D47FC5A95588F4F8B69817A81B2
:1017A000660D711D67FC7A957E876D877989C716EE
:1017B00008F051CF2C2D30E04D815E81420F531F38
:1017C000A985BA854A9FC0014B9F900D5A9F900DE5
:1017D0001124FC01E80DF91DF88BEF87852D612C94
:1017E0004F89588D420F531F5E8B4D8B671408F045
:1017F00050C044244394480E877041F4C1010196BF
:10180000EB89FC89E20DF31DD4901C01D7FE19C0B1
:10181000A98DBA8DED91FC91662D70E0B1E0BB12FF
:1018200019C0AB1217C02D853E85620F731F04844B
:10183000F585E02D2F8138854D895E89898D9A8DBA
:101840000995DD0C6394842DD1CF1E821D821C82EC
:101850001B8288CF4B815C81640F751FAB85BC8573
:101860006A9FC0016B9F900D7A9F900D1124698132
:101870007A81680F791F0684F785E02DEF80F88460
:1018800009851A859D014F855889898D9A8D0995FD
:10189000D8CF570CC3948ACF6A960FB6F894DEBFA0
:1018A0000FBECDBFDF91CF911F910F91FF90EF90B1
:1018B000DF90CF90BF90AF909F908F907F906F9070
:1018C0005F904F903F902F9008958F929F92AF928C
:1018D000CF92EF92FF920F931F93CF93DF93EC0180
:1018E000262F898D9A8D009709F051C06A30D1F466
:1018F0001D861C868D8948E0849F900111248E8569
:101900009F85820F931F9F878E8781E090E0DF91F4
:10191000CF911F910F91FF90EF90CF90AF909F903C
:101920008F9008956D3089F3CC88AD888F89882396
:10193000C1F08C859D8536E0C39E800D911D1124DC
:10194000488559854817590764F44E855F851D867B
:101950001C8638E0A39EC0011124840F951F9F8729
:101960008E87EA88FB88088919894E855F856C8592
:101970007D85CE010E94400A2C898C859D8546E09C
:10198000249F800D911D11249D878C87BECF6A30C6
:1019900069F41D861C86FC013896E4912D898E859C
:1019A0009F85E29F800D911D1124ADCF6D3009F40C
:1019B000ACCFFC0134963491631708F4A6CF32966D
:1019C000E491E61708F4A1CFFC013296859094903B
:1019D000462F431B342F47E0349F800C911C112469
:1019E000F401329634913196E4913323A9F1EE2338
:1019F00099F1CC88F4013596E491AD884F89442360
:101A000001F10E2E000CFF0BE30FF11DCE9EA00185
:101A1000CF9E500D11246C857D85460F571F68851C
:101A20007985641775076CF44E855F851D861C8665
:101A3000FC013896E491AE9E400D511D11245F8744
:101A40004E87EA88FB88088919894E855F856C85F1
:101A50007D85CE010E94400AF4013496E4912C89E0
:101A60008C859D85E29F800D911D11248DCF6F92F5
:101A70007F928F929F92AF92BF92CF92DF92EF921E
:101A8000FF920F931F93CF93DF93EC016B015A01E9
:101A900039014801E881F9810284F385E02D099537
:101AA000E881F9810288F389E02D87019301A5017E
:101AB000B601CE010995A501480D591D41505109A6
:101AC000E881F9810288F389E02D9301B601CE0106
:101AD0000995E881F9810088F189E02D9401A5013B
:101AE000B601CE010995C60CD71CB601615071092B
:101AF000E881F9810088F189E02D9401A501CE01EA
:101B00000995E881F9810688F789E02DCE01DF91FA
:101B1000CF911F910F91FF90EF90DF90CF90BF90EA
:101B2000AF909F908F907F906F9009946F927F926B
:101B30008F929F92AF92BF92CF92DF92EF92FF92DD
:101B40000F931F93CF93DF935C01EB016A0149016F
:101B500038018701DC01ED91FC916217730719F5DB
:101B6000641675062CF0962D872D3A01C92ED82EB5
:101B70009601261937092F5F3F4F048CF58DE02D14
:101B8000A301BE01C5010995DF91CF911F910F916E
:101B9000FF90EF90DF90CF90BF90AF909F908F908D
:101BA0007F906F9008954615570591F426173707D3
:101BB00024F0892D4B01C22FD82F9E0128193909F5
:101BC0002F5F3F4F068CF78DE02DA601B401DACFD1
:101BD0000284F385E02D0995D501ED91FC910488EF
:101BE000F589E02D83019401A601BE01C501099587
:101BF000D501ED91FC910688F789E02DC501DF91B3
:101C0000CF911F910F91FF90EF90DF90CF90BF90F9
:101C1000AF909F908F907F906F900994EF92FF927A
:101C20000F931F93DC011A960D911C911B97189628
:101C30002D913C911997ED91FC9100A0F1A1E02D1F
:101C40007B0150E040E070E060E009951F910F914A
:101C5000FF90EF9008954F925F926F927F928F92D4
:101C60009F92AF92BF92CF92DF92EF92FF920F932B
:101C70001F93CF93DF936C012B015A013901480167
:101C8000DC01ED91FC910284F385E02D0995E201E0
:101C9000640C751CD601ED91FC91C615D7055CF45A
:101CA0000088F189E02D87019401A501BE01C601DC
:101CB00009952196EFCF0688F789E02DC601DF91BF
:101CC000CF911F910F91FF90EF90DF90CF90BF9039
:101CD000AF909F908F907F906F905F904F900994FE
:101CE0008F929F92AF92BF92CF92DF92EF92FF922C
:101CF0000F931F93CF93DF93EC015B014A016901BE
:101D0000E881F9810284F385E02D099595012C0D78
:101D10003D1D21503109E881F9810488F589E02DC4
:101D200078018401A401B501CE010995E881F9810A
:101D30000688F789E02DCE01DF91CF911F910F9199
:101D4000FF90EF90DF90CF90BF90AF909F908F90DB
:101D500009948F929F92AF92BF92CF92DF92EF92AF
:101D6000FF920F931F93CF93DF93EC015B014A0126
:101D700069017801E881F9810284F385E02D0995F4
:101D8000C80CD91C860101501109E881F981048829
:101D9000F589E02D9501A401B501CE010995E881F1
:101DA000F9810688F789E02DCE01DF91CF911F914F
:101DB0000F91FF90EF90DF90CF90BF90AF909F90EA
:101DC0008F900994EF92FF920F931F93DC01ED9196
:101DD000FC9100A0F1A1E02D09951F910F91FF90BA
:101DE000EF9008950F931F93DC01ED91FC91068C09
:101DF000F78DE02D09951F910F9108950F931F9373
:101E0000DC01ED91FC91048CF58DE02D09951F917D
:101E10000F910895DC01ED91FC910084F185E02D96
:101E200009943F924F925F926F927F928F929F920E
:101E3000AF92BF92CF92DF92EF92FF920F931F93D8
:101E4000CF93DF935C017B014A016901390187E08F
:101E5000680E711C93E0759467949A95E1F72B01D5
:101E6000400E511E10E000E0312CD0E0C0E0CE0169
:101E700087709927330C892B59F4FE0183E0F5957F
:101E8000E7958A95E1F7E00FF11FE80DF91D349011
:101E900037FE0AC021E030E0A701B5016C0F7D1FBD
:101EA0008BEF92E00E940A0F2196CC16DD06F9F620
:101EB0008FEFE81AF80A060D171DE414F504A9F6C9
:101EC000DF91CF911F910F91FF90EF90DF90CF9016
:101ED000BF90AF909F908F907F906F905F904F904A
:101EE0003F9008952F923F924F925F926F927F9210
:101EF0008F929F92AF92BF92CF92DF92EF92FF921A
:101F00000F931F93CF93DF9300D000D000D0CDB7B5
:101F1000DEB73C016A013E832D83FC82EB825801CF
:101F2000A41AB50AB7FE03C0B194A194B1088D807C
:101F30009E80861A970A97FE03C091948194910817
:101F40008A149B045CF0902F812F0D811E819D834C
:101F50008E839C2D8D2D6B01692F782F0C151D05FF
:101F60005CF09D818E817E836D83692F782F902F09
:101F7000812F8601C92ED82E1601201A310A2B0175
:101F80002D813E81421A530A57FE03C05194419459
:101F90005108710137FE03C03FEFE31AF30AF594CD
:101FA000E7948D819E81861797075CF5A1E0B0E0EC
:101FB000BA83A983C016D1064CF1D301ED91FC91EF
:101FC0000484F585E02D2B813C81A8016D817E8103
:101FD0008A149B041CF04D815E81B801C3010995F0
:101FE000E418F508F7FE0AC02D813E8189819A81A7
:101FF000280F391F3E832D83E20CF31C0F5F1F4F08
:10200000D9CF2FEF3FEF3A832983D4CF26960FB64F
:10201000F894DEBF0FBECDBFDF91CF911F910F911E
:10202000FF90EF90DF90CF90BF90AF909F908F90F8
:102030007F906F905F904F903F902F9008950895FC
:102040002091F401260F3327331F21323105ECF4A0
:1020500020911802FC0190E080E0243069F082E0D9
:102060000895A091F4012191AC014C525E4FA40F50
:10207000B52FB11D2C930196861798F38091F4012A
:10208000680F6093F40180E0089581E00895109254
:10209000180281E080931A021092190261E082E135
:1020A0000E94A50561E083E10E94A505E9EBF0E04F
:1020B00080818E7F808380818D7F808388E4809380
:1020C000B80085E48093BC000895CF93DF9391E03E
:1020D0009093D3018823B9F0C091B800D091BA0091
:1020E0008091BC008A7B8093BC0060E082E10E940A
:1020F000A50560E083E10E94A5050E944710D093EA
:10210000BA00C093B800DF91CF910895E0914402E6
:1021100080914302E81730F4F0E0E255FE4F8081F1
:1021200090E008958FEF9FEF089590914402809181
:1021300043022FEF3FEF981748F4E92FF0E0E25504
:10214000FE4F208130E09F5F90934402C9010895C3
:102150008091430290914402891B990B0895CF927C
:10216000DF92EF92FF920F931F93CF93DF937C0147
:10217000CB018A0120915102222389F0EB016B01EE
:10218000C40ED51ECC15DD0569F06991D701ED911E
:10219000FC910190F081E02DC7010995F3CF642FE8
:1021A0000E942010C801DF91CF911F910F91FF90E5
:1021B000EF90DF90CF900895CF93DF931F92CDB72C
:1021C000DEB76983209151022223F9F020914E025B
:1021D000203258F021E030E0FC013383228390E08C
:1021E00080E00F90DF91CF91089580914F02E82F0A
:1021F000F0E0E257FE4F998190838F5F80934F020A
:1022000080934E0281E090E0ECCF61E0CE01019638
:102210000E942010F7CFCF92DF92EF92FF920F93A0
:102220001F93CF93DF93D0914E0281E0D13208F01B
:102230009CC0C09150020E94F1056B017C0180910D
:10224000180281116CC082E08093180281E08093B3
:102250001A028FEF8093170210923C02D0933B0238
:10226000AEE8B1E0EBE1F2E080E0D8138DC010926F
:102270003D0280913D02CC0FC82BC0933D0280915E
:102280001902813009F084C0109219020E94F105F0
:102290006B017C0180913D028093BB008091CF0156
:1022A0009091D001A091D101B091D201892B8A2BBC
:1022B0008B2BA1F00E94F1050091CF011091D0016C
:1022C0002091D1013091D2016C197D098E099F09AD
:1022D000061717072807390708F442C08091BC0089
:1022E00083FDD8CF85EC8093BC000E94F1056B0183
:1022F0007C0180911802823009F44CC08091170251
:102300008F3F09F469C080911702803209F466C0DA
:1023100080911702803309F463C084E026C0809165
:10232000CF019091D001A091D101B091D201892B20
:102330008A2B8B2B09F483CF0E94F1050091CF01EA
:102340001091D0012091D1013091D2016C197D09F9
:102350008E099F09061717072807390708F06FCF5E
:102360008091CE010E94651085E010924F0210927C
:102370004E0210925102DF91CF911F910F91FF9069
:10238000EF90DF90CF9008959D9191938F5F6DCFE7
:1023900085EEA9CF8091CF019091D001A091D1017C
:1023A000B091D201892B8A2B8B2B09F4A2CF0E94EA
:1023B000F1050091CF011091D0012091D101309110
:1023C000D2016C197D098E099F0906171707280786
:1023D000390708F08ECFC4CF80E0C7CF82E0C5CFE9
:1023E00083E0C3CFEF92FF920F931F93CF93DF93BE
:1023F0007C01C62F8091180390911903009709F46E
:1024000059C020911C0331E03093510220935002B7
:1024100010924F0210924E02DC01ED91FC9101905E
:10242000F081E02D60E009958701EE24E394F12C22
:10243000D1E0C1508091180390911903CF3F91F1E1
:10244000B0E2EB16F104D8F00E940B118091180352
:102450009091190320911C03D093510220935002B4
:1024600010924F0210924E02DC01ED91FC9101900E
:10247000F081E02D60E00995EE24E394F12C809149
:10248000180390911903F8016491DC01ED91FC911E
:102490000190F081E02D0995BFEFEB1AFB0A0F5F69
:1024A0001F4FC7CFDF91CF911F910F91FF90EF90FA
:1024B0000C940B11E0912803F091290390818091F5
:1024C0002E038095892380838701C15008F438C08A
:1024D000F80184912091160330911703232B29F0E2
:1024E0000E94200A0F5F1F4FF0CF28E030E040E845
:1024F000E0912403F091250390912C03582F54234D
:10250000D9F05081952B9083E0912603F091270319
:10251000908150912D03952B9083E0912603F091AB
:102520002703508190912D03909595239083469594
:1025300021503109E9F6D6CF508190959523E3CF0C
:10254000DF91CF911F910F91FF90EF9008951F930E
:10255000CF93DF93EC018D8D9E8D009721F1162F87
:1025600029A131E0309351022093500210924F0282
:1025700010924E02DC01ED91FC910190F081E02D72
:1025800060E009958D8D9E8DDC01ED91FC910190AF
:10259000F081E02D612F09958D8D9E8DDF91CF917A
:1025A0001F910C940B11ADA5BEA59C918BA9809594
:1025B00089238C938B8D9C8D892B31F0862FDF9115
:1025C000CF911F910C94200A28E030E080E8A9A563
:1025D000BAA599A9462F4823C1F04C91942B9C93FE
:1025E000ABA5BCA59C914AA9942B9C93ABA5BCA57B
:1025F0004C919AA9909594239C93869521503109EA
:1026000031F7DF91CF911F9108954C9190959423CC
:10261000E6CFDF92EF92FF920F931F93CF93DF935A
:102620008091180390911903892B09F498C0209187
:10263000300330913103409132035091330360E015
:1026400074E284EF90E00E94D11C205131094109CD
:10265000510956954795379527952093B80065E021
:102660008DEA9AE00E94F2116091FF0261508BEFB7
:1026700092E00E94A7122091010330910203C90148
:10268000079697FD079633E0959587953A95E1F77C
:102690002091FF0230910003829F8001839F100DE3
:1026A000929F100D1124C0911A03D0911B038091A9
:1026B0001803909119030C0F1D1F009709F48FC088
:1026C00020911C0331E0309351022093500210926C
:1026D0004F0210924E02DC01ED91FC910190F081CD
:1026E000E02D60E40995EE24E394F12CDD24D394ED
:1026F00080911803909119030C171D0709F446C027
:10270000B0E2EB16F104D8F00E940B11809118038F
:102710009091190320911C03D092510220935002F2
:1027200010924F0210924E02DC01ED91FC9101904B
:10273000F081E02D60E40995EE24E394F12C809182
:102740001803909119036991DC01ED91FC910190BE
:10275000F081E02D0995BFEFEB1AFB0AC9CF8091FC
:10276000160390911703892B31F0809139039091D2
:102770003A030E94270AE0912A03F0912B039081EB
:1027800080912F0380958923808369CF0E940B114C
:102790008091180390911903892B09F461C020914D
:1027A000340330913503409136035091370360E094
:1027B00074E284EF90E00E94D11C2051310941095C
:1027C000510956954795379527952093B800DF9185
:1027D000CF911F910F91FF90EF90DF900895E091BE
:1027E0002803F0912903808190912E03892B808307
:1027F0000C171D0769F28991209116033091170378
:10280000232B19F00E94200AF3CF28E030E040E8A3
:10281000E0912403F091250390912C03582F542329
:10282000D9F05081952B9083E0912603F0912703F6
:10283000908150912D03952B9083E0912603F09188
:102840002703508190912D03909595239083469571
:1028500021503109E9F6CCCF508190959523E3CFF3
:10286000E0912A03F0912B03808190912F03892B13
:102870008083ADCF1F93CF93DF93EC01162F8D8D07
:102880009E8D892BB1F12DA93EA94FA958AD60E0CD
:1028900074E284EF90E00E94D11C2051310941097B
:1028A000510956954795379527952093B80066EAC4
:1028B000111167EACE010E94A7128D8D9E8D892B82
:1028C00041F129AD3AAD4BAD5CAD60E074E284EF0F
:1028D00090E00E94D11C20513109410951095695BF
:1028E0004795379527952093B800DF91CF911F9199
:1028F00008958B8D9C8D892B21F08EAD9FAD0E940C
:10290000270AEFA5F8A990818CA980958923808357
:10291000CECFEFA5F8A980819CA9892B8083E5CF34
:1029200090E080E008952091010330910203C901F5
:10293000079697FD079623E0959587952A95E1F7E9
:102940002091FF0230910003829FA001839F500DD0
:10295000929F500D112470E060E080911A039091D5
:102960001B030C94E91ECF93DF93FC012481358176
:102970006217730788F49B01C081D1816CE270E01B
:10298000CE01820F931F0E94F01E009729F08C1B2E
:102990009D0BDF91CF9108958FEF9FEFFACFFB0151
:1029A00001900020E9F73197AF01461B570BDC017E
:1029B000ED91FC910280F381E02D09940F931F9318
:1029C000CF93DF93EC010E944A068C0166E571E02B
:1029D000CE010E94CF14800F911FDF91CF911F91E4
:1029E0000F9108950E94DB1EFC0180819181009768
:1029F00011F00C94951D08950F931F93CF93DF93BF
:102A0000EC0188819981009759F02A813B81261732
:102A1000370730F081E0DF91CF911F910F9108953A
:102A20008B016F5F7F4F0E941E1E009759F09983A4
:102A300088831B830A832C813D81232B59F7FC015A
:102A40001082E8CF80E0E7CFEF92FF920F931F93C1
:102A5000CF93DF93EC017B018A01BA010E94FC1441
:102A600028813981811114C02115310519F0C9015E
:102A70000E94951D198218821D821C821B821A8257
:102A8000CE01DF91CF911F910F91FF90EF900895AC
:102A90001D830C83B701C9010E94FB1EF1CFAF92C9
:102AA000BF92CF92DF92EF92FF920F931F93CF933B
:102AB000DF93EC016B015A0179012417350720F4EB
:102AC0008B2D5901E42EF82E198218821B821A824E
:102AD0001D821C8250E040E068E571E0CE010E945A
:102AE0002415D60114960D911C91A016B10628F557
:102AF000E016F10608F48701D601ED91FC911197DB
:102B0000E00FF11FF08010826D917C916A0D7B1DAA
:102B100061157105F1F0FB0101900020E9F7319793
:102B2000AF01461B570BCE010E942415F601808190
:102B30009181080F191FD801FC92CE01DF91CF912E
:102B40001F910F91FF90EF90DF90CF90BF90AF90CB
:102B5000089588819981009711F00E94951D19822E
:102B600018821D821C821B821A82E0CF85ED809321
:102B7000BC008091CF019091D001A091D101B09182
:102B8000D2010796A11DB11D23E0B695A795979593
:102B900087952A95D1F72091BC0024FD03C010929F
:102BA000180208954091CF015091D0016091D10158
:102BB0007091D201452B462B472B69F30097A10555
:102BC000B10541F02AE22A95F1F700C00197A10969
:102BD000B109E1CF8091CE010C9465101F920F9244
:102BE0000FB60F9211242F933F938F939F93AF9320
:102BF000BF9380914A0290914B02A0914C02B091F8
:102C00004D023091450223E0230F2D3758F50196F0
:102C1000A11DB11D2093450280934A0290934B025F
:102C2000A0934C02B0934D028091460290914702CE
:102C3000A0914802B09149020196A11DB11D809357
:102C4000460290934702A0934802B0934902BF9175
:102C5000AF919F918F913F912F910F900FBE0F9049
:102C60001F90189526E8230F0296A11DB11DD2CF03
:102C70001F920F920FB60F9211242F933F934F93F1
:102C80005F936F937F938F939F93AF93BF93EF93D4
:102C9000FF9382E592E00E943A07FF91EF91BF9186
:102CA000AF919F918F917F916F915F914F913F91E4
:102CB0002F910F900FBE0F901F9018951F920F929B
:102CC0000FB60F9211242F938F939F93EF93FF933F
:102CD000E0916202F09163028081E0916802F091DC
:102CE000690282FD1BC0908180916B028F5F8F73A0
:102CF00020916C02821741F0E0916B02F0E0EE5AF5
:102D0000FD4F958F80936B02FF91EF919F918F9173
:102D10002F910F900FBE0F901F9018958081F4CFC8
:102D20001F920F920FB60F9211242F933F934F9340
:102D30005F936F937F938F939F93AF93BF93EF9323
:102D4000FF938091B900887F803609F44AC0F0F57E
:102D5000883209F4A7C018F5803109F49BC0B8F493
:102D6000882309F4F9C0883009F494C0FF91EF91E9
:102D7000BF91AF919F918F917F916F915F914F9193
:102D80003F912F910F900FBE0F901F901895883193
:102D900009F488C0803251F78093170214C0803440
:102DA00009F49DC040F48033B9F38833F9F6809379
:102DB000170285ECB0C0803509F485C0883509F468
:102DC00096C0883499F60E94B615D0CF883909F498
:102DD0008CC038F5883729F050F4883611F08037E8
:102DE00029F683E0809318021092160257C08838A3
:102DF00009F47BC0803919F0803809F0B7CF809191
:102E00001602803208F071C0E091160281E08E0F48
:102E1000809316028091BB00F0E0EA50FE4F808361
:102E20003DC0803B39F0E0F4803A09F479C0883A3B
:102E300009F09CCF84E0809318021092F501109263
:102E4000F401E0914102F091420209958091F40170
:102E500081110FC081E08093F4011092D40109C068
:102E6000803C09F4A6CF883C09F4A3CF883B09F045
:102E70007DCFE091F50181E08E0F8093F501F0E0C8
:102E8000EC52FE4F80818093BB009091F5018091C0
:102E9000F40129C080913D028093BB0085EC8093B2
:102EA000BC0064CF90913C0280913B02981758F58A
:102EB000E0913C0281E08E0F80933C02F0E0E55E01
:102EC000FD4F8081E9CFE0913C0281E08E0F80933D
:102ED0003C028091BB00F0E0E55EFD4F8083909165
:102EE0003C0280913B029817C8F285E8D8CFE09168
:102EF0003C0281E08E0F80933C028091BB00F0E0A9
:102F0000E55EFD4F808380911A0281115CCF81E0E4
:102F10008093190284EA8093BC001092180226CF95
:102F200085EC8093BC0010921802809116028032CA
:102F300030F4E0911602F0E0EA50FE4F108260910A
:102F4000160270E0E0913F02F091400286EF91E0BE
:102F50000995109216020ACF1092170234CFE2E5BB
:102F6000F2E01382128248EE53E060E070E04483A6
:102F70005583668377838AE091E09183808385EC33
:102F800090E09587848784EC90E09787868780EC33
:102F900090E0918B808B81EC90E0938B828B82EC24
:102FA00090E0958B848B86EC90E0978B868B118ECE
:102FB000128E138E148EAFEEB2E013961C921E92F8
:102FC000129714964D935D936D937C9317978CE1B4
:102FD00091E011969C938E93EBEFF2E013821282B4
:102FE00020E830E03583248380E490E09783868373
:102FF0003187208793878287168A158614861786DD
:10300000168681E0858B848B2FEF3FEF338B228BED
:10301000318B208B878B108E128E118E8EE291E079
:1030200091838083148E138EB68FA58F10A2178E76
:103030008FEF84A385A386A387A380A780E89AE166
:10304000A6E0B0E085AB96ABA7ABB0AF80EA96E860
:10305000A1E0B0E081AF92AFA3AFB4AF80E586AF9F
:1030600017AE0895CF93DF93CDB7DEB76E970FB647
:10307000F894DEBF0FBECDBF789484B5826084BD66
:1030800084B5816084BD85B5826085BD85B581606C
:1030900085BD80916E00816080936E0010928100EA
:1030A00080918100826080938100809181008160A5
:1030B0008093810080918000816080938000809166
:1030C000B10084608093B1008091B00081608093F2
:1030D000B00080917A00846080937A0080917A00B9
:1030E000826080937A0080917A00816080937A0078
:1030F00080917A00806880937A001092C100E091FC
:103100006202F091630282E08083E0915E02F091BE
:103110005F021082E0916002F09161028FEC808387
:1031200010926A02E0916602F091670286E0808365
:10313000E0916402F0916502808180618083E0917A
:103140006402F0916502808188608083E09164026E
:10315000F0916502808180688083E0916402F09143
:10316000650280818F7D808380911A0390911B037B
:10317000892B71F52091010330910203C901079653
:1031800097FD0796B3E095958795BA95E1F720915D
:10319000FF0230910003AC01429FC001439F900D9C
:1031A000529F900D11240E94F91C90931B03809351
:1031B0001A03892B69F463E47AE082E592E00E94C5
:1031C000580666E571E082E592E00E94CF14FFCFD9
:1031D0000E94931420910103309102038091FF0219
:1031E00090910003B901213231050CF45DC16054A6
:1031F000710977FF02C06F5F7F4F759567958255A4
:10320000910997FD019600E410E022E530E04AE6DE
:1032100057E0959587950E94110F82E080931D03DA
:103220008091180390911903892B09F450C18CE304
:1032300080931C03109244021092430210924F029A
:1032400010924E020E94471088E496E0909342024A
:103250008093410289E496E09093400280933F027C
:103260008091230387FD1DC00E94850561E0809148
:1032700023030E94A50561E070E080E090E00E94D9
:10328000160660E0809123030E94A5056AE070E0C5
:1032900080E090E00E94160661E0809123030E9486
:1032A000A5058091180390911903892B09F4C6C1D3
:1032B0002091300330913103409132035091330318
:1032C00060E074E284EF90E00E94D11C205131094B
:1032D0004109510956954795379527952093B80090
:1032E00064E086E895E00E94F2116091010361506C
:1032F0008BEF92E00E94A71264E082E895E00E94C2
:10330000F21180911D0364E1813009F460E18BEFDB
:1033100092E00E94A71264E08EE795E00E94F2110D
:103320008FE8809338038091FF02909100038038EA
:10333000910509F09CC180910103909102038034B2
:10334000910509F0A4C180911D03813009F48DC15C
:103350008FEC8093380312E16AED8BEF92E00E94CC
:10336000A712612F8BEF92E00E94A71261E88BEF0A
:1033700092E00E94A712609138038BEF92E00E94C6
:10338000A71269ED8BEF92E00E94A71280911D03B6
:1033900061EF813009F462E28BEF92E00E94A712A4
:1033A00066E088E795E00E94F21180911803909101
:1033B0001903892B09F46FC120913403309135032F
:1033C000409136035091370360E074E284EF90E05F
:1033D0000E94D11C20513109410951095695479548
:1033E000379527952093B8000E94931481E080932D
:1033F0000F038093100381E090E090930E0380937D
:103400000D0390930C0380930B031092080310920A
:10341000070310920A03109209036AE27AE08BEF25
:1034200092E00E9458060E94091360ED77E080E068
:1034300090E00E94160682E592E00E941A07181694
:1034400019060CF05BC21A8E198E1C8E1B8E1E8EF6
:103450001D8E50E040E068E571E0CE0149960E9483
:1034600024150E94CC0697FD20C18A30910509F4ED
:103470001CC189831A820D8D1E8D0F5F1F4FB801ED
:10348000CE0149960E94FC14882359F3298D3A8D68
:103490008D8D9E8DBE016F5F7F4F820F931F0E94A7
:1034A000FB1E1E8F0D8FDDCF6052710977FF02C0AA
:1034B0006F5F7F4F759567958357910997FD0196CB
:1034C00000E210E023E730E04AE855E0A2CE809128
:1034D00021030E948505809122030E948505809129
:1034E0002103082E000C990BFC01EB57F54FE491DA
:1034F000F0E0EE0FFF1FEF58F54F25913491309318
:10350000290320932803FC01E756F54FE491E0934B
:103510002E0380912203082E000C990BFC01EB571F
:10352000F54FE491F0E0EE0FFF1FEF58F54FA59136
:10353000B491B0932B03A0932A03FC01E756F54FF7
:10354000E491E0932F038C91E82BEC938091160388
:1035500090911703892B89F11FB7F89480913E024F
:10356000811124C0EFE8FAE08491E3EAFAE0949153
:10357000E82FF0E0EE0FFF1FE558F54FA591B4914D
:10358000EC91E92321F461E08AE00E94A5058AE03C
:103590000E9485058CB580618CBD8CB580648CBD26
:1035A0008DE00E9485058BE00E94850580913E029A
:1035B0008F5F80933E021FBF53CE80911F030E94F6
:1035C0008505809120030E94850580911F03082EA8
:1035D000000C990BFC01EB57F54FE491F0E0EE0F76
:1035E000FF1FEF58F54F2591349130932503209319
:1035F0002403FC01E756F54FE491E0932C038091FE
:103600002003082E000C990BFC01EB57F54FE491B9
:10361000F0E0EE0FFF1FEF58F54FA591B491B09376
:103620002703A0932603FC01E756F54FE491E093AE
:103630002D038C91E095E823EC9312CE8091160334
:1036400090911703892B31F08091390390913A03BF
:103650000E94270AE0912A03F0912B039081809128
:103660002F038095892380833BCE8FE972CE8036ED
:10367000910569F48091010390910203409739F418
:1036800080911D03813029F08FEA8093380312E086
:1036900063CE80E1FACFE0912A03F0912B03808181
:1036A00090912F03892B80839FCE69E571E082E59D
:1036B00092E00E94CF14BE01675E7F4F82E592E0E8
:1036C0000E94DE141A8219821C821B821E821D82B5
:1036D00046E050E064E671E0CE0101960E942415B8
:1036E0004D815E818D8D9E8D8417950770F0898D3B
:1036F0009A8D009751F069817A816115710529F0E1
:103700000E94021F11E0892B09F010E0CE01019602
:103710000E94F414112309F4EDC070E060E0CE01C2
:1037200049960E94B314BC016F5F7F4FCE0149964A
:103730000E94B31401962C01BC01CE0149960E944F
:10374000B3144C016C015FEFC51AD50AB601CE0166
:1037500049960E94B3145C018C010F5F1F4FB801A2
:10376000CE0149960E94B3147C013C018FEF681A88
:10377000780AB301CE0149960E94B3141C0194014A
:10378000A201BE01675E7F4FCE0143960E944F1596
:103790009501A601BE01675E7F4FCE010D960E9486
:1037A0004F159701A801BE01675E7F4FCE010796B6
:1037B0000E944F159101A301BE01675E7F4FCE01AC
:1037C00001960E944F156BE671E082E592E00E943F
:1037D000CF14BE016D5E7F4F82E592E00E944A06E3
:1037E00062E671E082E592E00E94CF14BE01635F61
:1037F0007F4F82E592E00E94DE1466E771E082E589
:1038000092E00E94CF14BE01695F7F4F82E592E093
:103810000E944A0662E671E082E592E00E94CF14BF
:10382000BE016F5F7F4F82E592E00E94DE140E942E
:103830009314109208031092070310920A03109237
:10384000090362E871E08BEF92E00E94CF14BE01A1
:103850006D5E7F4F8BEF92E00E944A0662E671E058
:103860008BEF92E00E94CF14BE01635F7F4F8BEF1E
:1038700092E00E944A06109208031092070344E166
:1038800050E050930A034093090368E871E08BEF1E
:1038900092E00E94CF14BE01695F7F4F8BEF92E0F0
:1038A0000E944A0662E671E08BEF92E00E94CF141C
:1038B000BE016F5F7F4F8BEF92E00E944A060E942D
:1038C0000913CE0101960E94F414CE0107960E94BE
:1038D000F414CE010D960E94F414CE0143960E947A
:1038E000F4140E949314BE01675E7F4F8BEF92E049
:1038F0000E94DE14CE0149960E94F41480E090E00C
:10390000892B09F498CD0E942607882309F493CDCA
:103910000E94000090CD8EE291E09093FC02809393
:10392000FB0280911A0390911B03009711F00C94F5
:10393000951D08952F923F924F925F926F927F92C2
:103940008F929F92AF92BF92CF92DF92EF92FF92AF
:103950000F931F93CF93DF93CDB7DEB7CA1BDB0B5B
:103960000FB6F894DEBF0FBECDBF09942A88398800
:1039700048885F846E847D848C849B84AA84B98407
:10398000C884DF80EE80FD800C811B81AA81B98113
:10399000CE0FD11D0FB6F894DEBF0FBECDBFED0127
:1039A0000895A1E21A2EAA1BBB1BFD010DC0AA1F80
:1039B000BB1FEE1FFF1FA217B307E407F50720F098
:1039C000A21BB30BE40BF50B661F771F881F991F13
:1039D0001A9469F760957095809590959B01AC015C
:1039E000BD01CF010895EE0FFF1F0590F491E02D6A
:1039F00009940F931F93CF93DF938230910510F4B6
:103A000082E090E0E0913D03F0913E0330E020E061
:103A1000B0E0A0E0309799F42115310509F44AC0CF
:103A2000281B390B24303105D8F58A819B8161151B
:103A3000710589F1FB0193838283FE0111C04081EE
:103A400051810281138148175907E0F0481759073F
:103A500099F4109761F012960C93129713961C9399
:103A60003296CF01DF91CF911F910F91089500936E
:103A70003D0310933E03F4CF2115310551F0421759
:103A8000530738F0A901DB019A01BD01DF01F801FC
:103A9000C1CFEF01F9CF90933E0380933D03CDCF8B
:103AA000FE01E20FF31F8193919322503109398374
:103AB0002883D7CF20913B0330913C03232B41F443
:103AC000209102013091030130933C0320933B038A
:103AD00020910001309101012115310541F42DB7EC
:103AE0003EB74091040150910501241B350BE09134
:103AF0003B03F0913C03E217F307A0F42E1B3F0BAE
:103B00002817390778F0AC014E5F5F4F241735074F
:103B100048F04E0F5F1F50933C0340933B0381934B
:103B200091939FCFF0E0E0E09CCFCF93DF9300979D
:103B3000E9F0FC01329713821282A0913D03B0910B
:103B40003E03ED0130E020E01097A1F420813181A7
:103B5000820F931F20913B0330913C0328173907B4
:103B600009F061C0F0933C03E0933B03DF91CF91F8
:103B70000895EA01CE17DF07E8F54A815B819E01CF
:103B800041155105B1F7E901FB83EA834991599148
:103B9000C40FD51FEC17FD0761F480819181029657
:103BA000840F951FE90199838883828193819B8388
:103BB0008A83F0E0E0E012968D919C911397009734
:103BC000B9F52D913C911197CD010296820F931F6B
:103BD00020913B0330913C032817390739F6309781
:103BE00051F510923E0310923D03B0933C03A09315
:103BF0003B03BCCFD383C28340815181840F951F87
:103C0000C817D90761F44E5F5F4F88819981480FCB
:103C1000591F518340838A819B819383828321151D
:103C2000310509F0B0CFF0933E03E0933D039ECF02
:103C3000FD01DC01C0CF13821282D7CFB0E0A0E03B
:103C4000E4E2FEE10C949C1C8C01009751F4CB0142
:103C50000E94F91C8C01C801CDB7DEB7E0E10C94DD
:103C6000B81CFC01E60FF71F9C0122503109E21736
:103C7000F30708F49DC0D901CD91DC911197C617C7
:103C8000D70798F0C530D10530F3CE0104978617D9
:103C9000970708F3C61BD70B2297C193D1936D9357
:103CA0007C93CF010E94951DD6CF5B01AC1ABD0A53
:103CB0004C018C0E9D1EA0913D03B0913E03512CF2
:103CC000412CF12CE12C109731F580913B03909120
:103CD0003C038815990509F05CC04616570608F0A4
:103CE00058C08091000190910101009741F48DB777
:103CF0009EB74091040150910501841B950BE81774
:103D0000F90708F055C0F0933C03E0933B03F90139
:103D100071836083A0CF8D919C91119712966C90C6
:103D2000129713967C901397A815B90559F56C0155
:103D300042E0C40ED11CCA14DB0420F1AC014A19C4
:103D40005B09DA011296159780F0628273825183C3
:103D50004083D9016D937C93E114F10471F0D70194
:103D60001396FC93EE93129776CF22968C0F9D1F9D
:103D7000F90191838083F301EFCFF0933E03E09349
:103D80003D0369CF4816590608F42C017D01D30183
:103D90009ACFCB010E94F91C7C01009749F0AE013B
:103DA000B8010E94E01EC8010E94951D870153CFF3
:103DB00010E000E050CF81E090E0F8940C94101FE8
:103DC000FB01DC0102C001900D9241505040D8F738
:103DD0000895DC0101C06D9341505040E0F7089513
:103DE000FC018191861721F08823D9F7992708953E
:103DF0003197CF010895FB01DC0101900D92002065
:103E0000E1F70895FB01DC014150504030F08D9105
:103E10000190801919F40020B9F7881B990B0895B7
:103E200015E0CAE5D5E004C0FE010E94F31C21960E
:103E3000CB35D107C9F7F894FFCF00003F038000CE
:103E4000000000005C077C06A906A9071A07B8064F
:103E50000C0700000000DC10AF109014A405A8109F
:103E60009510861000000000650C7C0690141F1051
:103E70007009A4050A0FE20EFE0EF20E720FA405E1
:103E80002B0A3A14E00829092B0E0E0E960D370D59
:103E90000D0A0052656365697665643A200024471F
:103EA00050474741004C617469747564653A20005D
:103EB0004C6F6E6769747564653A20004C61743AA2
:083EC00020004C6F6E3A200057
:107E0000112484B714BE81FFF0D085E080938100F7
:107E100082E08093C00088E18093C10086E0809377
:107E2000C20080E18093C4008EE0C9D0259A86E02C
:107E300020E33CEF91E0309385002093840096BBD3
:107E4000B09BFECF1D9AA8958150A9F7CC24DD24C4
:107E500088248394B5E0AB2EA1E19A2EF3E0BF2EE7
:107E6000A2D0813461F49FD0082FAFD0023811F036
:107E7000013811F484E001C083E08DD089C08234E0
:107E800011F484E103C0853419F485E0A6D080C0E4
:107E9000853579F488D0E82EFF2485D0082F10E0AE
:107EA000102F00270E291F29000F111F8ED06801E7
:107EB0006FC0863521F484E090D080E0DECF843638
:107EC00009F040C070D06FD0082F6DD080E0C81688
:107ED00080E7D80618F4F601B7BEE895C0E0D1E017
:107EE00062D089930C17E1F7F0E0CF16F0E7DF06D8
:107EF00018F0F601B7BEE89568D007B600FCFDCFD4
:107F0000A601A0E0B1E02C9130E011968C91119780
:107F100090E0982F8827822B932B1296FA010C0160
:107F200087BEE89511244E5F5F4FF1E0A038BF0790
:107F300051F7F601A7BEE89507B600FCFDCF97BE46
:107F4000E89526C08437B1F42ED02DD0F82E2BD052
:107F50003CD0F601EF2C8F010F5F1F4F84911BD097
:107F6000EA94F801C1F70894C11CD11CFA94CF0C13
:107F7000D11C0EC0853739F428D08EE10CD085E9AC
:107F80000AD08FE07ACF813511F488E018D01DD067
:107F900080E101D065CF982F8091C00085FFFCCF94
:107FA0009093C60008958091C00087FFFCCF809118
:107FB000C00084FD01C0A8958091C6000895E0E648
:107FC000F0E098E1908380830895EDDF803219F02E
:107FD00088E0F5DFFFCF84E1DECF1F93182FE3DFCA
:107FE0001150E9F7F2DF1F91089580E0E8DFEE27F6
:047FF000FF270994CA
:027FFE00040479
:00000001FF
